{
  "contractName": "VoteOrganizationFactory",
  "abi": [
    {
      "constant": true,
      "inputs": [],
      "name": "getContractCount",
      "outputs": [
        {
          "name": "",
          "type": "uint256"
        }
      ],
      "payable": false,
      "stateMutability": "view",
      "type": "function"
    },
    {
      "constant": false,
      "inputs": [],
      "name": "newVotingOrganization",
      "outputs": [
        {
          "name": "newContract",
          "type": "address"
        }
      ],
      "payable": false,
      "stateMutability": "nonpayable",
      "type": "function"
    },
    {
      "constant": true,
      "inputs": [
        {
          "name": "index",
          "type": "uint256"
        }
      ],
      "name": "getContractAddressByIndex",
      "outputs": [
        {
          "name": "",
          "type": "address"
        }
      ],
      "payable": false,
      "stateMutability": "view",
      "type": "function"
    }
  ],
  "bytecode": "0x608060405234801561001057600080fd5b506102cb806100206000396000f3fe608060405260043610610057576000357c0100000000000000000000000000000000000000000000000000000000900463ffffffff1680638526a5361461005c5780639399869d146100d7578063e9f59e8e14610102575b600080fd5b34801561006857600080fd5b506100956004803603602081101561007f57600080fd5b8101908080359060200190929190505050610159565b604051808273ffffffffffffffffffffffffffffffffffffffff1673ffffffffffffffffffffffffffffffffffffffff16815260200191505060405180910390f35b3480156100e357600080fd5b506100ec61019b565b6040518082815260200191505060405180910390f35b34801561010e57600080fd5b506101176101a7565b604051808273ffffffffffffffffffffffffffffffffffffffff1673ffffffffffffffffffffffffffffffffffffffff16815260200191505060405180910390f35b6000808281548110151561016957fe5b9060005260206000200160009054906101000a900473ffffffffffffffffffffffffffffffffffffffff169050919050565b60008080549050905090565b6000806101b261023e565b604051809103906000f0801580156101ce573d6000803e3d6000fd5b50905060008190806001815401808255809150509060018203906000526020600020016000909192909190916101000a81548173ffffffffffffffffffffffffffffffffffffffff021916908373ffffffffffffffffffffffffffffffffffffffff160217905550508091505090565b60405160528061024e8339019056fe6080604052348015600f57600080fd5b50603580601d6000396000f3fe6080604052600080fdfea165627a7a72305820d8d5e41cee7bc7cf0fbf7719f715f748dce30fd3abaf4493bc22383d347ed47b0029a165627a7a7230582065468de9ac2ece4fe2c26b9bff0629cd82f5e7396fcd535d09928d7ad84160ea0029",
  "source": "pragma solidity ^0.5.0;\n\ncontract VotableToken {\n    function balanceOf(address) public view returns(uint);\n}\n\ncontract VoteOrganizationFactory {\n    address[] contracts;\n\n    function getContractCount() public view returns(uint) {\n        return contracts.length;\n    }\n\n    function newVotingOrganization() public returns(address newContract) {\n        VotingOrganization w = new VotingOrganization();\n        contracts.push(address(w));\n        return address(w);\n    }\n\n    function getContractAddressByIndex(uint index) public view returns(address) {\n        return contracts[index];\n    }\n}\n\ncontract VotingOrganization {\n    \n    uint proposalCount;\n    address[] boardMembersList;\n    address[] delegatesList;\n    Proposal[] proposals;\n\n    enum ProposalState {\n        Open,\n        Passed,\n        Against,\n        Forced,\n        Rejected,\n        Voted\n    }\n\n    struct Proposal {\n        string title;\n        string description;\n        uint endBlock;\n        address creator;\n        ProposalState proposalState;\n        mapping(address => Voter) voters;\n        address[] votersAddress;\n    }\n\n    struct Voter {\n        uint value;\n        bool vated;\n    }\n\n    struct Delegate {\n        address to;\n        bool delegated;\n    }\n\n\n}",
  "sourcePath": "/home/audrey/ethdenver/TheWill/contracts/TheWill.sol",
  "compiler": {
    "name": "solc",
    "version": "0.5.0+commit.1d4f565a.Emscripten.clang"
  },
  "schemaVersion": "3.0.1",
  "updatedAt": "2019-02-16T04:27:14.629Z",
  "devdoc": {
    "methods": {}
  },
  "userdoc": {
    "methods": {}
  }
}